:1000000010C017C016C015C014C013C012C011C054
:1000100010C00FC00EC00DC00CC00BC00AC009C07C
:1000200008C011241FBECFE5D2E0DEBFCDBF30D067
:100030005BC0E6CF8FEF86B981BB84BB17B815BA1A
:1000400080EC82BB08952FEF2ABB399A8BBB95BBFE
:1000500039986BBB969885E38A95F1F70000969ADC
:1000600008952FEF2ABB399A8BBB95BB39981ABAE2
:1000700085E38A95F1F70000979895E39A95F1F753
:10008000000089B3979A95E39A95F1F700000895D7
:10009000D1DF60E080E090E2D6DF6FEF80E090E4B7
:1000A000D2DF6DE680E090E8CEDF2FEF8FE493ECB7
:1000B000215080409040E1F700C0000082E090E2D3
:1000C000D0DF682F82E090E8BEDF81E090E8C9DFF2
:1000D000682F81E090E4B7DF2FEF81EE94E02150AC
:0C00E00080409040E1F7E8CFF894FFCF9B
:00000001FF
